:020000040800F2
:10000000280700209101000831140008DD0C0008C9
:10001000CF13000869070008ED2600080000000063
:10002000000000000000000000000000E51E0008C5
:100030000908000800000000851E00087D20000857
:10004000AB010008AB010008AB010008AB010008E0
:10005000AB010008AB010008AB010008AB010008D0
:10006000AB010008AB010008AB010008AB010008C0
:10007000AB010008AB010008AB010008AB010008B0
:10008000AB010008AB010008AB010008AB010008A0
:10009000AB010008AB010008AB010008AB01000890
:1000A000AB010008AB010008AB010008AB01000880
:1000B000AB010008AB010008AB010008AB01000870
:1000C000AB010008AB010008AB010008AB01000860
:1000D000AB010008AB010008AB010008AB01000850
:1000E0000D080008AB010008AB01000800F002F8A1
:1000F00000F03FF80AA090E8000C82448344AAF183
:100100000107DA4501D100F034F8AFF2090EBAE880
:100110000F0013F0010F18BFFB1A43F0010318473B
:10012000787F0000987F0000103A24BF78C878C11B
:10013000FAD8520724BF30C830C144BF04680C60ED
:10014000704700000023002400250026103A28BF35
:1001500078C1FBD8520728BF30C148BF0B60704739
:10016000642900F06780002070471FB51FBD10B5DF
:1001700010BD00F0CBFA1146FFF7F7FF04F018F9B5
:1001800000F0E9FA03B4FFF7F2FF03BC02F0D3FB7F
:100190000948804709480047FEE7FEE7FEE7FEE71B
:1001A000FEE7FEE7FEE7FEE7FEE7FEE70448054957
:1001B000054A064B7047000081200008ED0000084A
:1001C0002801002028070020280300202803002001
:1001D000704710B54C1084EA530404D54042C1F175
:1001E000000138BF491E1B4204D55242C3F100032F
:1001F00038BF5B1E00F02EF914F0804F04D040424F
:10020000C1F1000138BF491E14F0004F04D0524222
:10021000C3F1000338BF5B1E10BD00000FB40449DA
:1002200010B503AA029800F0F1F910BC5DF814FBB8
:10023000000000202DE9F0410646002410687529D1
:10024000314616A510D0AFF30080002802DA4042F4
:1002500013A507E031688A0701D512A502E0490716
:1002600004D511A5012401E0AFF3008000210A228A
:1002700006F1240709E0B0FBF2FCB0FBF2F302FB4D
:100280001C00303078541846491C0028F3D123460E
:100290002A463046BDE8F04100F05EB9000000009B
:1002A0002D0000002B000000200000002DE9F05F71
:1002B000894604464FF0000ADFF824B1FB44C0F839
:1002C00020A02046E168884700287DD0252806D058
:1002D000D4E901219047206A401C2062F1E7002503
:1002E0005F462046E16888472028064607DB312E16
:1002F00005D2B81910F8200C08B10543F1E7A8079A
:1003000001D525F00405C4F81CA00027C4F818A0E6
:100310002A2E09D0304602F007FB38B304EB8708D9
:10032000303EC8F8186019E059F8041B204604EB69
:1003300087029161E1688847012F064618D1E0697C
:10034000002820DA25F020051DE0D8F8180000EB81
:10035000800006EB40003038C8F818002046E168FD
:100360008847064602F0E0FA0028EED1012F0AD0B5
:100370002E2E08D12046E16888477F1C0646022FB2
:1003800045F02005C4DBA069002803DA404245F0AF
:100390000105A061E80701D025F01005A6B1A6F17E
:1003A0004100192802D8203645F400654A463146F6
:1003B000204625604D46FFF7D3FE60B1012807D0E7
:1003C000ED1D25F0070000E007E000F1080978E7DF
:1003D00005F1040975E730467AE7206ABDE8F09F29
:1003E000867C000040EA010310B59B070FD1042A68
:1003F0000DD310C808C9121F9C42F8D020BA19BAF0
:10040000884201D9012010BD4FF0FF3010BD1AB154
:10041000D30703D0521C07E0002010BD10F8013BA9
:1004200011F8014B1B1B07D110F8013B11F8014BD0
:100430001B1B01D1921EF1D1184610BD02F0FF0323
:1004400043EA032242EA024200F0F4B870477047E0
:100450007047704753EA020C00F069802DE9F04BB9
:100460004FF00006002B1FBFB3FA83F503FA05F423
:1004700024FA05F65E4012BF1643B2FA82F502FA7C
:1004800005F4C5F120051EBF22FA05FC44EA0C0460
:10049000203556EA044C4FEA144418BF641C4FF050
:1004A00000084FF00009904271EB030C39D300298A
:1004B00019BFB1FA81F701FA07F6B0FA80F700FA2E
:1004C00007F6C7F120071EBF20FA07FC46EA0C0614
:1004D0002037B6FBF4FCA7EB0507103F07F01F0B16
:1004E000CBF120060CFA0BFB2CFA06F644BFB34600
:1004F0000026202FA4BF5E464FF0000B5BEA060CDF
:1005000008BF4FF0010B19EB0B09ABFB027C48EB6A
:100510000608C01B06FB02CC0BFB03CC71EB0C01E5
:10052000C1E70B46024641464846BDE8F08B13B58D
:100530004FF000004FF00001AFF30080BDE81C4019
:10054000704710B500F096F8006810BD10B504466D
:1005500000F090F8046010BD2DE9F0470D46994673
:100560009246044600F124080168880604D5E06933
:1005700021F01001216000E00120A84201DD471BAD
:1005800000E00027A1697A1902EB0900081AA061AE
:100590002078C00602D42046AFF30080002608E091
:1005A000D4E901211AF806009047206A401C761C05
:1005B00020624E45F4DB2078C0060AD52046AFF312
:1005C000008006E0D4E9012130209047206A401CD9
:1005D0002062381EA7F10107F4DC07E0D4E901210D
:1005E00018F805009047206A401C2062281EA5F1DB
:1005F0000105F3DC2046AFF300802078000602D529
:100600000220BDE8F0870120FBE70000074B70B532
:100610000D467B4400F037F80446284600F046F8C3
:1006200010B14FF0FF3070BD204670BDD3360000D2
:100630004FF000020429C0F0128010F0030C00F00B
:100640003B80CCF1040CBCF1020F18BF00F8012B69
:10065000A8BF20F8022BA1EB0C0100F02DB85FEA37
:10066000C17C24BF00F8012B00F8012B48BF00F823
:10067000012B704700487047C400002001694A1CE4
:1006800002610878704700B58FB0CDE901310021D3
:10069000059105497944CDE9031011466846FFF7F5
:1006A00005FE0FB000BD0000E5FFFFFF007B00F07E
:1006B000800070474FF0000200B5134694469646FE
:1006C000203922BFA0E80C50A0E80C50B1F1200165
:1006D000BFF4F7AF090728BFA0E80C5048BF0CC013
:1006E0005DF804EB890028BF40F8042B08BF704771
:1006F00048BF20F8022B11F0804F18BF00F8012BE3
:100700007047000000487047C40000207546FFF79E
:10071000F9FFAE4605006946534620F007008546BE
:1007200018B020B5FFF742FDBDE820404FF00006AD
:100730004FF000074FF000084FF0000B21F00701C9
:10074000AC46ACE8C009ACE8C009ACE8C009ACE80C
:10075000C0098D46704710B50446AFF300802046AF
:10076000BDE81040FFF70EBD00BFFEE770B50124E5
:10077000012319A20421002001F0C0F9012319A2CC
:100780000521002001F0BAF9012319A20621002059
:1007900001F0B4F90FE02246641C012305213C203E
:1007A00000F0E2FF01232A4606212A2000F0DCFFA8
:1007B000C82002F073FC03F07BFF051EEBD1012380
:1007C0000DA2042101F09AF94FF47A7002F066FC50
:1007D00000F096FE70BD0000444D5020696E672EFB
:1007E0002E2E0000417474656D7074733A00000021
:1007F0004572726F723A0000444D50204F4B2120D9
:100800005F5F7A7A740000007047000070B52B4A71
:100810002B492C4803F03AFE002849D128480068AB
:1008200029490860002029490860022004F05EFF81
:100830004542042004F05AFF2C1804EBD4704010F9
:1008400023490860214801681F48006801F0AAFF99
:1008500005461F48006801F04BFF2C18204605F0A4
:10086000F7FE1C490860084600681B4908601948E3
:1008700000681A4908600846006805F0ADFE0446A5
:100880001548006805F0A8FE05462246294641F6AF
:10089000583001F0F8FA1148006805F09DFE044652
:1008A0000D48006805F098FE0546214601F01CFB46
:1008B0004FF4805000F014F870BD0000800000205C
:1008C0007C000020780000208400002088000020A8
:1008D000980000208C000020900000209400002050
:1008E00001490860704700001404014000212349B9
:1008F0008279002A3AD00A46126803689A430B4666
:100900001A600A1D126803689A430B1D1A60027967
:1009100011440A6803681A430A60184A08321268C8
:1009200003689A43154B08331A601A1D126803684E
:100930009A43124B0C331A604279102A0ED11A1FB7
:10094000126803681A430D4B08331A601A1D1268A7
:1009500003681A43094B0C331A600DE007494279CA
:1009600011440A6803681A430A6005E002791144D9
:100970000A6803689A430A60704700000004014057
:1009800030B587B005460C460121082001F09AFADF
:100990000121084601F086FA04208DF81B0003208F
:1009A000ADF818008DF81A0006A9224800F0C0F82A
:1009B0000020ADF81200ADF80E00ADF81050ADF803
:1009C0000C408DF8140003A94FF0804001F03CFE6C
:1009D000684601F049FD0020ADF800000A20ADF89E
:1009E00008006946400701F0E9FC0420ADF800006A
:1009F0000A20ADF808006946400701F0DFFC00233B
:100A00001A4603214FF0804001F0B4FC0121880711
:100A100001F092FC00220121880701F02EFD002147
:100A20004FF0804001F0E2FD0121880701F087FCD2
:100A300007B030BD0008014030B587B005460C4610
:100A40000121042001F03EFA0121042001F02AFADC
:100A500004208DF81B00C020ADF8180003208DF88D
:100A60001A0006A9204800F063F80020ADF8120033
:100A7000ADF80E00ADF81050ADF80C408DF8140034
:100A800003A91A4801F0E0FD684601F0EDFC0020E2
:100A9000ADF800000A20ADF808006946400701F0F3
:100AA0008DFC0420ADF800000A20ADF8080069466E
:100AB000400701F083FC00231A4603210B4801F094
:100AC00059FC0121094801F037FC002201210748A7
:100AD00001F0D3FC0021054801F088FD0121034805
:100AE00001F02DFC07B030BD000C014000080040B3
:100AF00030B500228B071C0F0F2303FA04F20B4BB7
:100B00008C1053F824309343084C8D1044F8253052
:100B100023468C1053F824308C07240F00FA04F479
:100B20002343024C8D1044F8253030BD08000140AD
:100B30002DE9F04102460025002600200023002474
:100B4000002791F803C00CF00F0591F803C00CF0DA
:100B5000100CBCF1000F03D091F802C04CEA05055F
:100B600091F800C0BCF1000F31D0146800202BE0D8
:100B70004FF0010C0CFA00F3B1F800C00CEA0306C8
:100B80009E4220D183004FF00F0C0CFA03F7BC43B8
:100B900005FA03FC4CEA040491F803C0BCF1280FE9
:100BA00006D14FF0010C0CFA00FCC2F814C00AE0A8
:100BB00091F803C0BCF1480F05D14FF0010C0CFABD
:100BC00000FCC2F810C0401C0828D1D31460B1F852
:100BD00000C0BCF1FF0F34DD546800202EE000F1AE
:100BE000080C4FF0010808FA0CF3B1F800C00CEA49
:100BF00003069E4221D183004FF00F0C0CFA03F73D
:100C0000BC4305FA03FC4CEA040491F803C0BCF1B0
:100C1000280F05D100F1080C08FA0CF8C2F814806E
:100C200091F803C0BCF1480F07D100F1080C4FF058
:100C3000010808FA0CF8C2F81080401C0828CED32E
:100C40005460BDE8F0810000F0B50A46002300249E
:100C50000021002500F00046B6F1004F02D11D4EE4
:100C6000F16901E01B4E7168C0F3034583B200F4E3
:100C70004016B6F5401F08D121F07061154E766818
:100C800026F07066134F7E6012E000F48016B6F511
:100C9000801F06D1032606FA05F4A14341F07061D6
:100CA00006E0460D360103FA06F6B14341F07061E5
:100CB00022B1460D360103FA06F6314300F0004634
:100CC000B6F1004F02D1034EF16101E0014E7160B7
:100CD000F0BD0000000001400161704700BFFEE769
:100CE00008B50121082001F0EDF80320ADF800005F
:100CF00014208DF8030003208DF802006946044893
:100D0000FFF716FF03210248FFF7E6FF08BD0000CA
:100D1000000C014070B504461548006820F47020AE
:100D2000134908600846006840F44030086000201D
:100D300010490860002517E0E0090E49091D086008
:100D40006006040E022002F0CFF901200A49C1F822
:100D50008001022002F0C8F9002006490860022044
:100D600002F0C2F9681CC5B2082DE5DB70BD0000B9
:100D7000000C0140808121420080214210B50F48C3
:100D8000006820F470200D4908600846006840F4AF
:100D90004030086001200A4908600A49C1F8800112
:100DA000042002F0A1F9002005490860042002F0A7
:100DB0009BF900200349C1F8800110BD000C0140DF
:100DC000848121420080214210B50F48006820F440
:100DD00070200D4908600846006840F44030086003
:100DE00000200A4908600A49C1F88401042002F081
:100DF0007BF90120054908600549C1F884010420F8
:100E000002F072F910BD0000000C01408081214207
:100E10000080214210B500241448006820F470209E
:100E2000124908600846006840F40020086001206C
:100E30000F49086002F058F901200E49C1F88001FD
:100E400002F052F907E0601CC4B2FA2C03DDFFF790
:100E5000BBFF012010BD0648803800680028F2D191
:100E60000349091F086000BFF4E70000000C0140BF
:100E7000848121420080214270B504460D462946F6
:100E8000204605F011FC00D8254684F0004629468E
:100E9000304605F009FD01D884F0004570BD000022
:100EA00010B500200E4908600E48006820F0F000E0
:100EB0000C4908600846006840F0300008600020D7
:100EC0000949C1F8A40100F011F8012004490860A3
:100ED00000F00CF800200449C1F8A00110BD00008A
:100EE000A0812142040C01400080214210B5022063
:100EF00002F0FAF810BD000008B50121082000F04A
:100F0000E1FF4FF44070ADF8000010208DF80300B1
:100F100003208DF8020069460448FFF709FE4FF4EC
:100F200040710248FFF7D8FE08BD0000000C0140E8
:100F300010B500200E4908600E48006820F0F0004F
:100F40000C4908600846006840F030000860012045
:100F50000949C1F8A401FFF7C9FF0120044908604D
:100F6000FFF7C4FF00200449C1F8A00110BD000034
:100F7000A0812142040C01400080214270B5054649
:100F800000241648006820F0F00014490860084664
:100F9000006840F080000860002614E0002010493E
:100FA0000860FFF7A3FF01200E49C1F8A001600609
:100FB000040E0B487C38006808B1601CC4B2FFF70F
:100FC00095FF701CC6B2082EE8DB15B9FFF7B0FF1D
:100FD00001E0FFF765FF204670BD0000040C0140F2
:100FE000A08121420080214270B504461248006869
:100FF00020F0F000104908600846006840F030001A
:10100000086000200D490860002512E0E0090B4946
:10101000091D08606006040E01200949C1F8A001FD
:10102000FFF764FF002005490860FFF75FFF681CB9
:10103000C5B2082DEADB70BD040C0140A08121423D
:101040000080214210B50E48006820F0F0000C49E5
:1010500008600846006840F0300008600120094937
:1010600008600949C1F8A001FFF740FF00200549C9
:101070000860FFF73BFF00200349C1F8A00110BD45
:10108000040C0140A48121420080214210B50E4889
:10109000006820F0F0000C4908600846006840F045
:1010A000300008600020094908600949C1F8A4011E
:1010B000FFF71CFF0120054908600549C1F8A4019C
:1010C000FFF714FF10BD0000040C0140A081214275
:1010D0000080214210B500241448006820F0F00080
:1010E000124908600846006840F08000086001204E
:1010F0000F490860FFF7FAFE01200E49C1F8A00170
:10110000FFF7F4FE07E0601CC4B2FA2C03DDFFF722
:10111000BDFF012010BD0648803800680028F2D1CC
:101120000349091F086000BFF4E70000040C0140F8
:10113000A48121420080214210B5FFF7DDFE80210D
:101140006B2000F0F2F8642001F0A8FF00216B2072
:1011500000F0EBF8032000F0A6F8002000F09BF868
:10116000322000F0C5F80021382000F0DEF8002120
:101170006A2000F0DAF80021232000F0D6F8802160
:10118000372000F0D2F8752000F02EF80446682CC5
:101190000BD101216B2000F0C8F800216C2000F079
:1011A000C4F8322000F0A4F807E0012308A20221CD
:1011B000002000F0A3FC012010BD012307A20221A2
:1011C000002000F09BFC322001F068FF0020F3E7D4
:1011D0004D50553630353020657272004D505536C1
:1011E000303530204F4B210070B50446FFF72AFF01
:1011F000D020FFF7F9FEFFF76DFF2046FFF7F4FE62
:10120000FFF768FFFFF71EFFD120FFF7EDFEFFF7A6
:1012100061FF0020FFF7B2FE0546FFF737FF2846C3
:1012200070BD2DE9F04106460F4614461D46FFF7F6
:1012300009FF002141EA4601C8B2FFF7D5FEFFF7DA
:1012400049FF20B1FFF722FF0120BDE8F0813846B9
:10125000FFF7CAFEFFF73EFFFFF7F4FE012101EBA7
:101260004601C8B2FFF7C0FEFFF734FF0DE0012CC6
:1012700004D10020FFF782FE287003E00120FFF771
:101280007DFE2870601EC4B26D1C002CEFD1FFF7EC
:10129000FDFE0020D9E710B50446E006010E1C2033
:1012A00000F043F810BD10B50446E006010E1B2007
:1012B00000F03BF810BD70B504460025BC2C01DBE6
:1012C000012510E0622C01DB02250CE02A2C01DB59
:1012D000032508E0142C01DB042504E00A2C01DBC3
:1012E000052500E0062529461A2000F01EF870BDED
:1012F00070B50446B4F57A7F01DD4FF47A74042C9E
:1013000000DA04244FF47A7090FBF4F0401EC5B26A
:101310002946192000F009F80546264604EBD67147
:10132000C1F34F00FFF7C7FF70BD70B505460C460F
:10133000FFF788FED020FFF757FEFFF7CBFE18B16E
:10134000FFF7A4FE012070BD2846FFF74DFEFFF712
:10135000C1FE2046FFF748FEFFF7BCFE18B1FFF7BD
:1013600095FE0120EFE7FFF791FE0020EBE72DE966
:10137000F04105460E4617469846FFF763FE0021EA
:1013800041EA4501C8B2FFF72FFEFFF7A3FE20B1E7
:10139000FFF77CFE0120BDE8F0813046FFF724FE18
:1013A000FFF798FE00240CE018F80400FFF71CFE7D
:1013B000FFF790FE18B1FFF769FE0120EBE7601C14
:1013C000C4B2BC42F0DBFFF761FE0020E3E700BFE0
:1013D000FEE7000008B501210C2000F073FD01219B
:1013E000084600F06FFD01210E48FFF72DFC10208C
:1013F0008DF80300C002ADF8000003208DF8020054
:1014000069460948FFF794FB10208DF80300382047
:10141000ADF8000003208DF8020069460348FFF78D
:1014200087FB08BD0002300000080140000C0140AD
:101430007047000070B5002100230F22C47804B368
:10144000154C246804F4E064C4F5E064210AC1F199
:101450000403CA40447804FA03F184781440214319
:1014600009010E4C0678A155047804F01F050124EB
:10147000AC4005786D11AD0005F1E025C5F80041DF
:1014800009E0047804F01F050124AC40044D0678FF
:10149000761145F8264070BD0CED00E000E400E058
:1014A00080E100E002490143024A116070470000F8
:1014B0000000FA050CED00E0014600291ADB0E4899
:1014C000814217DA0A2901DA01207047642901DA1A
:1014D0000220FAE7B1F57A7F01DA0320F5E742F25C
:1014E0001070814201DA0420EFE70448814201DAFA
:1014F0000520EAE70020E8E7A086010040420F004F
:1015000010B5002000F04DF810BD10B50446FFF7EF
:1015100035FC7820FFF7FEFBFFF77CFC18B1FFF7E6
:1015200053FC012010BD0020FFF7F4FBFFF772FC15
:1015300018B1FFF749FC0120F4E72046FFF7EAFB6A
:10154000FFF768FC18B1FFF73FFC0120EAE7FFF75F
:101550003BFC0020E6E710B50446FFF70FFC7820BF
:10156000FFF7D8FBFFF756FC18B1FFF72DFC012061
:1015700010BD4020FFF7CEFBFFF74CFC18B1FFF782
:1015800023FC0120F4E72046FFF7C4FBFFF742FCF1
:1015900018B1FFF719FC0120EAE7FFF715FC00205E
:1015A000E6E770B50646002415E004F1B001C8B2C4
:1015B000FFF7ABFF0020FFF7A8FF1020FFF7A5FF04
:1015C000002504E03046FFF7C6FF681CC5B2802D39
:1015D000F8DB601CC4B2082CE7DB70BD10B5FFF768
:1015E0007FFB642001F05AFDAE20FFF78EFF202024
:1015F000FFF78BFF1020FFF788FFB020FFF785FF74
:10160000C820FFF782FFA120FFF77FFF0020FFF730
:101610007CFF1020FFF779FF4020FFF776FF812045
:10162000FFF773FFFF20FFF770FFA620FFF76DFFA6
:10163000A820FFF76AFF3F20FFF767FFA420FFF70E
:1016400064FFD320FFF761FF0020FFF75EFFD52086
:10165000FFF75BFFF020FFF758FFD920FFF755FF9A
:101660002220FFF752FFDA20FFF74FFF1220FFF78B
:101670004CFFDB20FFF749FF2020FFF746FF8D20BE
:10168000FFF743FF1420FFF740FFAF20FFF73DFFB8
:101690000020FFF786FF012302A20021084600F088
:1016A0002DFA10BD4F4C4544204F4B210000000047
:1016B00070B504460D4605F1B001C8B2FFF725FF2D
:1016C000102141EA1410FFF720FF04F00F0141F050
:1016D0000100FFF71AFF70BD2DE9F04107460E46E5
:1016E0001E49384605F014F8804604F075FF04469C
:1016F0001A49304605F00CF8804604F06DFF0546A7
:10170000002C07DA022316A21946002000F0F6F991
:10171000644205E0022313A21946002000F0EEF90E
:10172000022322461946082000F0C6FA002D07DAE7
:1017300002230BA20421002000F0E0F96D4205E035
:10174000022308A20421002000F0D8F902232A462F
:101750000421082000F0B0FABDE8F081000020412B
:101760002D000000200000002DE9F84F04460F4630
:1017700015461E460A20B5FBF0F100FB1158642007
:10178000B5FBF0F100FB11500A21B0FBF1F94FF469
:101790007A70B5FBF0F100FB11506421B0FBF1FA57
:1017A00042F21070B5FBF0F100FB11504FF47A716A
:1017B000B0FBF1FB42F21070B5FBF0F00090012E8F
:1017C0007BD12846FFF778FE062875D2DFE800F0C7
:1017D00074030A182E4E334642463946204600F01E
:1017E0000DF969E033464A463946204600F006F9CD
:1017F000A11DC8B233464246394600F0FFF85BE00F
:10180000334652463946204600F0F8F8A11DC8B2CA
:1018100033464A46394600F0F1F804F10C01C8B2EB
:1018200033464246394600F0E9F845E0A11DC8B20A
:1018300033465A46394600F0E1F804F10C01C8B2CB
:1018400033465246394600F0D9F804F11201C8B2C5
:1018500033464A46394600F0D1F804F11801C8B2BF
:1018600033464246394600F0C9F825E0334639464A
:101870002046009A00F0C2F8A11DC8B233465A466D
:10188000394600F0BBF804F10C01C8B233465246A9
:10189000394600F0B3F804F11201C8B233464A46A3
:1018A000394600F0ABF804F11801C8B2334642469D
:1018B000394600F0A3F800BF00BF022E7DD12846B4
:1018C000FFF7FAFD062877D2DFE800F076030A1961
:1018D000304F334642463946204600F08FF86BE0E1
:1018E00033464A463946204600F088F804F108019C
:1018F000C8B233464246394600F080F85CE03346D1
:1019000052463946204600F079F804F10801C8B281
:1019100033464A46394600F071F804F11001C8B266
:1019200033464246394600F069F845E033465A46A8
:101930003946204600F062F804F10801C8B2334687
:101940005246394600F05AF804F11001C8B2334645
:101950004A46394600F052F804F11801C8B233463D
:101960004246394600F04AF826E0334639462046DA
:10197000009A00F043F804F10801C8B233465A4611
:10198000394600F03BF804F11001C8B23346524624
:10199000394600F033F804F11801C8B233464A461C
:1019A000394600F02BF804F12001C8B23346424614
:1019B000394600F023F800BF00BFBDE8F88F0000F3
:1019C00010B50446002C07DA02230AA206210020E3
:1019D00000F094F8644205E0022307A206210020EB
:1019E00000F08CF8022322460621092000F0FCF8C2
:1019F00010BD00002D000000200000002DE9F84F70
:101A00000646884691469A4600270024002509F19B
:101A10003000C0B28DF8000000208DF80100BAF14E
:101A2000010F03D0BAF1020F60D126E020E01DF8CB
:101A300005002038C7B27E2E04DD002608F1010023
:101A400000F0FF0841463046FFF732FE002409E06F
:101A500007EB4701274A02EB4101085DFFF77BFDD9
:101A6000601CC4B2062CF3DBB01DC6B2681CC5B244
:101A70001DF805000028DAD138E032E01DF8050035
:101A80002038C7B2782E04DD002608F1010000F0EE
:101A9000FF0841463046FFF70BFE002407E004EB49
:101AA0000711154A505CFFF756FD601CC4B2082CA4
:101AB000F5DB08F10100C1B23046FFF7F9FD002463
:101AC00008E004EB071108310B4A505CFFF743FDB7
:101AD000601CC4B2082CF4DB06F10800C6B2681C16
:101AE000C5B21DF805000028C8D100BF00BFBDE881
:101AF000F88F00002E770008567900082DE9F0478E
:101B00000646894617469A464FF0000800240025ED
:101B1000BAF1010F03D0BAF1020F5ED125E020E047
:101B2000785D203800F0FF087E2E04DD002609F1E4
:101B3000010000F0FF0949463046FFF7B9FD0024D7
:101B400009E008EB4801264A02EB4101085DFFF776
:101B500002FD601CC4B2062CF3DBB01DC6B2681CCB
:101B6000C5B2785D0028DBD137E032E0785D2038FF
:101B700000F0FF08782E04DD002609F1010000F0D6
:101B8000FF0949463046FFF793FD002407E004EBC8
:101B90000811144A505CFFF7DEFC601CC4B2082C2C
:101BA000F5DB09F10100C1B23046FFF781FD0024E9
:101BB00008E004EB081108310A4A505CFFF7CBFC3F
:101BC000601CC4B2082CF4DB06F10800C6B2681C25
:101BD000C5B2785D0028C9D100BF00BFBDE8F0875D
:101BE0002E770008567900082DE9F05F04460F466D
:101BF00015461E460A20B5FBF0F100FB1158642083
:101C0000B5FBF0F100FB11500A21B0FBF1F94FF4E4
:101C10007A70B5FBF0F100FB11506421B0FBF1FAD2
:101C200042F21070B5FBF0F100FB11504FF47A71E5
:101C3000B0FBF1FB012E1CD133465A4639462046F3
:101C4000FFF7DCFEA11DC8B2334652463946FFF706
:101C5000D5FE04F10C01C8B233464A463946FFF7B7
:101C6000CDFE04F11201C8B2334642463946FFF7B1
:101C7000C5FE022E1DD133465A4639462046FFF78F
:101C8000BDFE04F10801C8B2334652463946FFF79B
:101C9000B5FE04F11001C8B233464A463946FFF793
:101CA000ADFE04F11801C8B2334642463946FFF78B
:101CB000A5FEBDE8F09F00002DE9F05F04460F4649
:101CC00015461E460A20B5FBF0F100FB11586420B2
:101CD000B5FBF0F100FB11500A21B0FBF1F94FF414
:101CE0007A70B5FBF0F100FB11506421B0FBF1FA02
:101CF00042F21070B5FBF0F100FB11504FF47A7115
:101D0000B0FBF1FB012E24D133465A46394620461A
:101D1000FFF774FEA11DC8B2334652463946FFF79D
:101D20006DFE04F10C01C8B233464A463946FFF74E
:101D300065FE04F11201C8B233461BA23946FFF713
:101D4000DDFE04F11801C8B2334642463946FFF7BA
:101D500055FE022E25D133465A4639462046FFF716
:101D60004DFE04F10801C8B2334652463946FFF72A
:101D700045FE04F11001C8B233464A463946FFF722
:101D80003DFE04F11801C8B2334607A23946FFF7F9
:101D9000B5FE04F12001C8B2334642463946FFF78A
:101DA0002DFEBDE8F09F00002E00000030B589B088
:101DB00005460C460121042000F084F80121C802E8
:101DC00000F080F818208DF823004FF41060ADF873
:101DD000200003208DF8220008A92848FEF7A8FE5D
:101DE0000020ADF81A00ADF81600ADF81850ADF8A7
:101DF000144005A9224800F027FC01A800F0E7FBE9
:101E00006020ADF804000020ADF80C000120ADF812
:101E100006000020ADF80A0001A9194800F036FBC1
:101E20006020ADF804000020ADF80C000120ADF8F2
:101E300006000020ADF80A0001A9114800F07CFB63
:101E400008210F4800F06EFB08210D4800F0B2FB9E
:101E500001210B4800F064FA0121094800F07BFAE7
:101E60000121074800F06BFA0021054800F0B9FB9A
:101E70000021034800F0B7FB09B030BD0008014065
:101E8000002C01407047814200DB014643429942E9
:101E900000DC4142824200DB024643429A4200DCBF
:101EA0004242704729B1064AD2690243044BDA61C3
:101EB00004E0034AD2698243014BDA6170470000B3
:101EC0000010024029B1064A92690243044B9A610C
:101ED00004E0034A92698243014B9A617047000013
:101EE000001002407047000070B504460D46002CFB
:101EF0000ADD01201949086000201949C1F8900144
:101F0000A1B2184800F06FFB002C0BDA0020134937
:101F1000086001201249C1F89001604281B2114865
:101F200000F061FB002D0ADD01200F490860002050
:101F30000B49C1F88C01A9B20A4800F052FB002DF0
:101F40000BDA00200849086001200549C1F88C011E
:101F5000684281B2034800F044FB70BD9481214285
:101F600000802142002C0140BC01214210B500F04C
:101F700001F810BD0CB500200190009033480068B6
:101F800040F480303149086000BF3048006800F4F8
:101F9000003000900198401C0190009818B90198F9
:101FA000B0F5A06FF1D12948006800F4003010B1FD
:101FB0000120009001E0002000900098012843D10A
:101FC0002348006840F01000214908600846006876
:101FD00020F0030008600846006840F00200086036
:101FE0001A484068194948600846406848600846F1
:101FF000406840F4806048600846406820F47C10E7
:1020000048600846406840F4E810486008460068A8
:1020100040F08070086000BF0C48006800F000705D
:102020000028F9D00948406820F0030007494860BB
:102030000846406840F00200486000BF034840681E
:1020400000F00C000828F9D10CBD0000001002407F
:1020500000200240042808D14FF0E021096941F036
:1020600004014FF0E022116107E04FF0E02109691F
:1020700021F004014FF0E022116170477047000029
:1020800010B51348006840F0010011490860084687
:102090004068104908400E494860084600680E49EB
:1020A00008400B4908600846006820F4802008605A
:1020B0000846406820F4FE0048604FF41F00886026
:1020C000FFF754FF4FF000600449086010BD0000A6
:1020D000001002400000FFF8FFFFF6FE08ED00E0F0
:1020E000F0B50C46154600220021068C4FF6FE770F
:1020F0003E400684028B018C4FF60C7632407E1CEB
:1021000006EA03162E433243104EB0420ED0104E54
:10211000B0420BD0B0F1804F08D00E4EB04205D087
:102120000D4EB04202D00D4EB04206D14FF6FD76B4
:10213000314044F00106314305E04FF6F576314079
:1021400044F00106314302830184F0BD002C0140BC
:10215000003401400004004000080040000C004032
:10216000F0B50C461546002200210026078C4FF6DC
:10217000EF7C07EA0C070784028B018C4FF6FF7790
:1021800007EA041640F6FF473A404FF6FF7707EAA2
:1021900003373A434FF6FF7707EA05273A43114FD3
:1021A000B8420ED0104FB8420BD0B0F1804F08D0DB
:1021B0000E4FB84205D00E4FB84202D00D4FB84274
:1021C00006D14FF6DF77394046F01007394305E076
:1021D0004FF65F77394044F010073943028301849A
:1021E000F0BD0000002C014000340140000400401C
:1021F00000080040000C0040F0B50C4615460022D7
:1022000000210026078C4FF6FF6C07EA0C070784B5
:10221000828B018C4FF6FF7707EA04264FF60C7786
:102220003A404FF6FF7707EA03172F433A43114F1F
:10223000B8420ED0104FB8420BD0B0F1804F08D04A
:102240000E4FB84205D00E4FB84202D00D4FB842E3
:1022500006D14FF6FF57394046F48077394305E001
:102260004FF2FF57394044F4807739438283018429
:10227000F0BD0000002C014000340140000400408B
:1022800000080040000C0040F0B50C461546002246
:1022900000210026078C4EF6FF7C07EA0C07078416
:1022A000828B018C4FF6FF7707EA043640F6FF4732
:1022B0003A404FF6FF7707EA05273A434FF6FF7794
:1022C00007EA03373A43114FB8420ED0104FB842D5
:1022D0000BD0B0F1804F08D00E4FB84205D00E4F52
:1022E000B84202D00D4FB84206D14DF6FF773940C3
:1022F00046F48057394305E047F6FF57394044F428
:102300008057394382830184F0BD0000002C0140D6
:10231000003401400004004000080040000C004070
:1023200021B1028842F08002028004E002884FF668
:102330007F731A4002807047CA430282704721B1FE
:10234000028842F00102028004E002884FF6FE7328
:102350001A400280704731B1B0F8442042F4004284
:10236000A0F8442005E0B0F84420C2F30E02A0F823
:1023700044207047F0B50C4615461E460021002249
:1023800000230189028B038C4FF6F87739402143F3
:102390004FF6FC473A4040F201173A434FF6DD77DB
:1023A0003B404FF6FF7707EA06172F433B43018177
:1023B00002830384F0BD0146888C704770B50546E2
:1023C0000C46244885420ED0234885420BD0B5F1F7
:1023D000804F08D02148854205D02148854202D04F
:1023E0002048854200D100E000BF208850B92389F1
:1023F000A28861882846FFF773FEE188284600F02E
:10240000F7F825E0208804280AD12389A28861886A
:102410002846FFF7A5FEE188284600F0F2F817E00D
:10242000208808280AD12389A28861882846FFF7D6
:10243000E3FEE188284600F0F1F809E02389A2884C
:1024400061882846FFF720FFE188284600F0EFF872
:1024500070BD0000002C0140003401400004004029
:1024600000080040000C0040002101804180012153
:1024700081800021C180018170471AB183890B439B
:10248000838102E083898B438381704770B5002488
:1024900000220023058C4FF6FE7635400584028C21
:1024A0008388048B4FF68F752C40B51E2C400D8809
:1024B0002C43751E2A400D892A434D882A43144D0A
:1024C000A8420BD0134DA84208D0134DA84205D006
:1024D000124DA84202D0124DA84213D14FF6F77503
:1024E0002A404D892A434FF6FB752A408D882A439E
:1024F0004FF6FF652B404FF6FF552B408D892B4340
:10250000CD892B4383800483CD888586028470BD6A
:10251000002C0140003401400040014000440140D3
:10252000004801400A460021018B4FF6F77319401D
:10253000114301837047000070B50022002300247E
:10254000058C4EF6FF7635400584038C8488828B9B
:1025500048F6FF752A404FF6FF452A400D884FF692
:10256000FF7606EA05252A434DF6FF752B400D89B7
:1025700006EA05352B434D8806EA05352B430B4DFE
:10258000A84202D00A4DA84208D14BF6FF752C4054
:102590008D894FF6FF7606EA85152C438480828369
:1025A000CD88A0F84050038470BD0000002C01408D
:1025B000003401400A460021818B4FF2FF7319401D
:1025C0004FF6FF7303EA022319438183704700210A
:1025D000018041808180C180018141818181C181EF
:1025E000704781867047A0F840107047818470471B
:1025F000028B4FF6F3731A400283028B0A43028365
:102600007047028B4FF2FF331A400283028B4FF662
:10261000FF7303EA01231A4302837047828B4FF64C
:10262000F3731A408283828B0A4382837047828BC2
:102630004FF2FF331A408283828B4FF6FF7303EA17
:1026400001231A4382837047002202881D4B98425F
:102650000ED01D4B98420BD0B0F1804F08D01B4BD1
:10266000984205D01A4B984202D01A4B984204D196
:102670004FF68F731A404B881A43174B984207D076
:10268000164B984204D04FF6FF431A40CB881A43AA
:1026900002808B8883850B8803850A4B98420BD078
:1026A000094B984208D00E4B984205D00D4B9842EA
:1026B00002D00D4B984201D10B7A0386012383820D
:1026C00070470000002C014000340140000400402D
:1026D00000080040000C00400010004000140040C2
:1026E00000400140004401400048014000BFFEE7B7
:1026F0002DE9F0410446234801684FF07E5004F074
:1027000005F9074620480168384604F001F80546F7
:10271000204603F09DFF07461A480168384603F03B
:10272000F7FF0646294603F0F3FD184908600846FE
:10273000006815490860154801681548006803F0ED
:10274000E7FD13490860084601681248FEF794FB4C
:102750000F4801681048006803F0DAFF05460B488F
:1027600001680E48006803F0D3FF0646294603F0CF
:10277000CFFD0B4908600846006803F02DFFBDE857
:10278000F0810000640000206C0000206800002040
:102790007000002000803B45600000205C000020AD
:1027A000740000202DE9F04104460D4629462046DC
:1027B00004F0ACF81749086008460068164908603C
:1027C000144801681548006803F0A2FD1349086029
:1027D000114801680F48006804F098F81049086033
:1027E000084601680F48006803F092FF0646094852
:1027F00001680D48006803F08BFF0746314603F07F
:1028000087FD0A4908600846006803F0E5FEBDE858
:10281000F0810000480000204C0000205000002003
:1028200054000020440000204000002058000020F8
:10283000490050EAC12018BF04204A0D18BF40F0DB
:10284000010040F2FF72B2EB515F08BF40F002009E
:10285000012808BF052070472DE9F0414F1E00EB0D
:10286000C7010446D1E9000115461E4637F00602AD
:102870000DD02A46334603F045FA7F1E04EBC7030A
:10288000D3E9002303F036F837F00602F1D1022F26
:1028900025D0042F13D0062F18BFBDE8F0812A469B
:1028A000334603F02FFAD4E90A2303F023F82A462B
:1028B000334603F027FAD4E9082303F01BF82A462D
:1028C000334603F01FFAD4E9062303F013F82A462F
:1028D000334603F017FAD4E9042303F00BF82A4631
:1028E000334603F00FFAD4E9022303F003F82A4633
:1028F000334603F007FAD4E90023BDE8F04102F0C3
:10290000F9BF012204F0A9B802F0F4BF0022134677
:102910001046114603F09EB8024A0020110704F049
:102920009CB8000001FDFFFF30380A2801D20120C9
:1029300070470020704700BF704700002DE9FE4F30
:1029400006460F460025684601F0DCF9002442E007
:1029500056F8240057F82410A0EB010ABAF1000F32
:1029600001DB514601E0CAF10001084603F070FEA8
:1029700083464FF08F4103F039FD80465DF8240017
:10298000002103F0F5FD16D05DF82410404603F059
:102990002DFD82464FF07E5103F0B8FF814629F0AD
:1029A000004A0F48416A504603F07EFF12D20120D0
:1029B000A04005430EE00A48C169404603F074FE9A
:1029C00005D30748016A404603F06EFF02D201209A
:1029D000A0400543641C032CBADB2846BDE8FE8FEB
:1029E000106B00082DE9F04D8D4F21F0004A86B0A4
:1029F00005460C46BA452ADBAAEB070028430AD055
:102A00008848824501DC1AD1CDB106B02846BDE820
:102A1000F04DFFF776BF844A844B284603F072F9E5
:102A200007460E46824A834B2846214603F06AF940
:102A300006B03A463346BDE8F04D02F05BBF0120D8
:102A4000FDF784FD06B0BDE8F04DFFF75FBF7A48A3
:102A5000824542DABAF1795F0BDA2846FFF7E8FEE1
:102A6000042808BFFFF758FF284606B02146BDE8F6
:102A7000F08D2A460B46104603F044F98346024681
:102A80006E480E460B4606217844FFF7E5FE5A468F
:102A9000334603F037F9804669488A465A4633463A
:102AA00004217844FFF7D8FE5A46334603F02AF94A
:102AB00000223B4602F01EFF02460B4640465146AE
:102AC00002F0C8FF2A46234603F01CF906B02A4646
:102AD0002346BDE8F04D02F00DBF284624F000412A
:102AE00000223D463B4603F00BFA4FF0FF3203F065
:102AF000B4FF0646024653480F460B46062178446B
:102B0000FFF7AAFE32463B4603F0FCF8CDE9000190
:102B10004D4832463B4604217844FFF79DFE32463D
:102B20003B4603F0EFF800222B4602F0E3FE83461B
:102B300002913046394602F085FE804643480D46F4
:102B4000504517DCDDE900015A46029B02F082FF86
:102B500042462B4603F0D6F842462B4602F0CAFE08
:102B6000012203F07AFF304A304B03F0BBFA304ABF
:102B7000304B4CE04FF0000A52460B46404602F004
:102B8000B9FECDE9031052462B461046194603F014
:102B9000B9F832463B4603F0B3F9DDE9033202F0FF
:102BA00059FF06460F46DDE900015A46029B02F036
:102BB00051FF8346009101223046394603F04DFF14
:102BC000194A1A4B03F09CF906460F46012240466B
:102BD000294603F042FF5A46009B03F093F8324621
:102BE0003B4603F07FFA06460F460122504629462F
:102BF00003F033FF0E4DDFF858802A46434603F0BA
:102C00007FF932463B4603F07BF92A46434603F000
:102C100077F9002CD8BF81F0004106B0BDE8F08DF7
:102C20000000F03F0000F07F075C143326A6913CC3
:102C3000182D4454FB21F93F0000E03FCC54000024
:102C4000E2540000565400006C5400003333EF3F50
:102C5000FB21E93F2DE9F84F04460D4621F00040E5
:102C600000917349814211DC7249884201DC06D12E
:102C70002CB120462946BDE8F84FFFF742BE6E480A
:102C8000002DCCBF6D496E49BDE8F88F6D4981427A
:102C900011DD6D498142D8BF4FF0FF366DDD204612
:102CA0002946FFF7C5FD042808BFFFF735FE20467B
:102CB0002946BDE8F88F6549654F25F000458142FA
:102CC00033DD6449814219DD002632464FF08043EE
:102CD0002046294602F00EFE80468A460122204602
:102CE000294603F0BAFE00223B4603F0FBF94246B8
:102CF000534602F0AFFE04460D463EE00126002298
:102D0000BA463B462046294602F0F4FD80460F466F
:102D1000002253462046294603F0E4F942463B464A
:102D200002F098FE04460D4627E04B4981421BDD28
:102D3000DFF828A10226002253462046294602F049
:102D4000E1FF00223B4602F0D5FD80460F460022FF
:102D500053462046294603F0C5F942463B4602F059
:102D600079FE04460D4608E0032622462B46002045
:102D70003B4902F06FFE04460D4622462B461046A4
:102D8000194602F0BFFF8B46824602460B4602F010
:102D9000B9FF07460246334888460B460621784469
:102DA000FFF75AFD52465B4602F0ACFF82462E48C2
:102DB0008B463A46434605217844FFF74DFD3A4697
:102DC000434602F09FFF02460B46002E50465946EE
:102DD0000CDA02F08FFD22462B4602F093FF01B081
:102DE00022462B46BDE8F04F03F08AB802F082FD80
:102DF00022462B4602F086FF1C4A7A4402EBC603A9
:102E0000D3E9002303F06EF922462B4603F06AF95A
:102E1000174A7A4402EBC603D3E9002303F070F8A3
:102E2000009A002AB8BF81F00041BDE8F88F000089
:102E3000000010440000F07F182D4454FB21F93F9E
:102E4000FB21F9BF0000DC3F0000203E0000F33F03
:102E50000000F03F0000E63F008003400000F83F24
:102E60000000F0BF6E5200002C520000CA5100005A
:102E7000925100002DE9F04D9446CCF1000423F06E
:102E800000464CEA0404524F46EAD4749A468846F7
:102E900021F00042BC4206D8454240EA050442EA1D
:102EA000D474BC4204D9BDE8F04D6246FFF72CBD96
:102EB000AAF14055A5F17F6555EA0C040BD0022418
:102EC00004EAAA74434DDFF810E144EAD87452EAE8
:102ED000000B04D00CE0BDE8F04DFFF7BBBE002CAA
:102EE00014BF012CBDE8F08D022C30D0032C32D061
:102EF00056EA0C0B0AD0BE4220D1BA4209D126F0C4
:102F0000804622F080423346114617E000291ADB42
:102F100025E0DFF8C8B0FB44002C04BFDBE900016A
:102F2000BDE8F08D012C02BFDBE9000181F000411A
:102F3000BDE8F08D022C0AD0032C0CD0BA4212D17D
:102F4000B8F1000F0BDA23482549BDE8F08D28467B
:102F50002449BDE8F08D28467146BDE8F08D1D4836
:102F60002149BDE8F08D921B12153C2AC4BF1948B7
:102F70001D490EDCBAF1000FBEBF12F13C0F00205C
:102F8000014606DB624602F065FD21F00041FFF7D5
:102F900061FE002C08BFBDE8F08D012C04BF81F05C
:102FA0000041BDE8F08D114A114B022C07D003F00F
:102FB00099F82A46BDE8F04D0A4B03F093B803F0A8
:102FC00091F82A46BDE8F04D064B02F099BF00008B
:102FD0000000F07F182D4454FB2109C02651000049
:102FE000FB21F9BFFB210940FB21F93F075C1433AA
:102FF00026A6A13C2DE9F0410446E07800F0C00689
:10300000E07800F03F05607800F0010098B1EF1023
:103010002846E91705EB5171C910A5EBC101491C00
:1030200001F0FF080B48006820B10A4841460268D9
:103030003846904700BF607800F0080030B105487E
:10304000406818B1B011034A516888470020BDE8B4
:10305000F0810000B400002010B56FF00400FEF70E
:10306000F9FF0A4800680A49B0FBF1F00949087005
:103070000846007800EB4001C1EBC0104FF6FF712D
:1030800001EAC0000449088010BD0000A000002033
:1030900000127A0004000020060000200146114AB8
:1030A00012884A434FF0E0235A6100229A611A467F
:1030B000126942F001021A6100BF4FF0E02210696C
:1030C00000F001021AB100F48032002AF5D04FF06E
:1030D000E022126922F001024FF0E0231A6100227F
:1030E0009A617047060000200146114A12784A434F
:1030F0004FF0E0235A6100229A611A46126942F0A9
:1031000001021A6100BF4FF0E022106900F00102D5
:103110001AB100F48032002AF5D04FF0E022126993
:1031200022F001024FF0E0231A6100229A617047F9
:103130000400002038B5044664B120208DF800005A
:1031400028208DF8010030208DF8020038208DF8FD
:10315000030004E0A32204216846FDF76FF96A46E4
:10316000042140F69E2002F081FA01F06BFE38BD8A
:103170003EB5044602208DF80000CA208DF80100FB
:10318000E3208DF8020009208DF803006A4604212F
:10319000682002F06BFAA3208DF8000004F04000D4
:1031A00048B1C0208DF80100C8208DF80200C2206F
:1031B0008DF8030006E0A3208DF801008DF80200D1
:1031C0008DF8030004F4C07048B1C4208DF80400E9
:1031D000CC208DF80500C6208DF8060006E0A3205F
:1031E0008DF804008DF805008DF80600A3208DF8F9
:1031F00007008DF808008DF809006A460A2140F69C
:10320000A72002F033FA04F0030018B120208DF853
:10321000000002E0D8208DF800006A46012140F647
:10322000B62002F023FA04F0200018B1012000F0CB
:10323000ADF802E0002000F0A9F804F4C07008B373
:1032400004F4807060B1B2208DF800008B208DF8FE
:103250000100B6208DF802009B208DF803000BE0E2
:10326000B0208DF8000080208DF80100B4208DF88A
:10327000020090208DF803006A46042140F6A22047
:1032800002F0F4F904F0010020B3F8208DF80000FA
:103290006A4601214FF40B6002F0E8F9FA21072099
:1032A00000F02CFC072000F0F3FB012000F013FCE1
:1032B000642000F0F3FC4FF4FA7000F002FDC82126
:1032C000304800F0A3FB282000F0BCFB0A2000F0EF
:1032D000CCFB08E0D8208DF800006A4601214FF4AD
:1032E0000B6002F0C3F904F0020018B1D9208DF888
:1032F000000002E0D8208DF800006A46012140F26B
:103300003D7002F0B3F904F0040018B1012000F0A0
:1033100069F802E0002000F065F804F0100018B130
:103320000120FFF707FF02E00020FFF703FF44F052
:1033300008001549488101F085FD00201249887375
:1033400004F0400018B10846807B801D887304F4A7
:10335000C07020B10C48807B801D0B49887304F03D
:10336000140020B10848807B10300749887304F0AE
:10337000030020B10448807B001D034988730020AE
:103380003EBD000009E3CA02B40000203EB5044679
:103390006CB10EA1D1E900208968CDE9002002912D
:1033A0006A4609214FF4976002F060F93EBD0AA217
:1033B000D2E900109268CDE9010200916A46092124
:1033C0004FF4976002F052F9F0E70000B8AAB38D0D
:1033D000B4980D355D000000B8AAAAAAB088C3C58C
:1033E000C700000038B5044664B1C0208DF8000065
:1033F000C2208DF80100C4208DF80200C6208DF88F
:10340000030004E08B2204216846FDF717F86A46A2
:10341000042140F6982002F029F901F013FD38BD8F
:1034200010B5C8234FF48062024940F6F63001F02F
:103430009DFB10BD386B00082DE9F04F8DB007469D
:10344000884615469946DDE9166B00240020308039
:103450006B49887B5A4605A901F054FC18B1601EDF
:103460000DB0BDE8F08F6648807A00F014000028A7
:1034700067D09DF8140000069DF8151040EA014041
:103480009DF8161040EA01209DF8171008432860A7
:103490009DF8180000069DF8191040EA01409DF8BB
:1034A0001A1040EA01209DF81B10084368609DF83F
:1034B0001C0000069DF81D1040EA01409DF81E10FA
:1034C00040EA01209DF81F100843A8609DF82000E5
:1034D00000069DF8211040EA01409DF8221040EAC4
:1034E00001209DF823100843E86004F11000C4B2E5
:1034F000286800140190686800140290A8680014FD
:103500000390E8680014049001984043029901FB7D
:103510000100039901FB0100049901FB010ABAF1C2
:10352000706F02DBBAF1885F05DD01F08BFC0020D3
:103530003080401E94E7B6F9000040F4807030807F
:1035400000BF2F48807A00F0400020B305A9601C1E
:10355000085C095D40EA012000B2A8F8000005A956
:10356000E01C095C05AAA01C105C41EA002000B226
:10357000A8F8020005A9601D095C201D105C41EA45
:10358000002000B2A8F80400A01DC4B2B6F90000E3
:1035900040F0080030801A48408900F4C07008B339
:1035A00005A9601C085C095D40EA012000B2388072
:1035B00005A9E01C095C05AAA01C105C41EA0020DA
:1035C00000B2788005A9601D095C201D105C41EAED
:1035D000002000B2B880A01DC4B2B6F9000040F0CF
:1035E000700030800648807A00F0030018B105A909
:1035F0000819FFF7FFFC484600F0FCFE00202FE70B
:10360000B400002070B588B0064601A801F002F9A8
:10361000BDF804000021C90341EA5045C4034448F1
:10362000007A00F0030056F8200005904048007A28
:1036300000F0040010B10598404205903C48007A23
:10364000C0F3C10056F8200006903948007A00F017
:10365000200010B10698404206903548007AC0F329
:10366000811056F8200007903148008900F48070DE
:1036700010B10798404207900598C117A0FB04239A
:1036800001FB043100FB0510810041EA92700590B6
:103690000698C117A0FB042301FB043100FB0510B1
:1036A000810041EA927006900798C117A0FB04239D
:1036B00001FB043100FB0510810041EA9270079084
:1036C0000598000E8DF808000598000C8DF809008B
:1036D0000598000A8DF80A000598C0B28DF80B0015
:1036E0000698000E8DF80C000698000C8DF80D0061
:1036F0000698000A8DF80E000698C0B28DF80F00EB
:103700000798000E8DF810000798000C8DF8110036
:103710000798000A8DF812000798C0B28DF81300C0
:1037200002AA0C214FF4257001F0A0FF08B070BD73
:10373000B400002030B585B0044616A207CA02AB1B
:1037400007C3C82C03DD4FF0FF3005B030BDC820E3
:1037500090FBF4F0401E85B2280A8DF80000E8B214
:103760008DF801006A46022140F2162001F07EFF2A
:1037700010B14FF0FF30E8E702AA0C2140F6C1205B
:1037800001F074FF10B14FF0FF30DEE70448848190
:103790000020DAE7FEF2ABC4AAF1DFDFBBAFDFDF68
:1037A000B40000201FB504464848007A00F003002A
:1037B00054F8200001904548007A00F0040010B150
:1037C0000198404201904148007AC0F3C10054F88A
:1037D000200002903D48007A00F0200010B10298CD
:1037E000404202903948007AC0F3811054F820001A
:1037F00003903648008900F4807010B1039840426D
:1038000003903349019880FB0101800F40EA810059
:1038100001902F49029880FB0110820042EA9170CA
:1038200002902B49039880FB0110820042EA9170BC
:1038300003900198000E8DF800000198000C8DF89F
:1038400001000198000A8DF802000198C0B28DF8BD
:1038500003006A4604214FF4747001F007FF18B1A9
:103860004FF0FF3004B010BD0298000E8DF800003C
:103870000298000C8DF801000298000A8DF80200F1
:103880000298C0B28DF803006A4604214FF47570A7
:1038900001F0ECFE10B14FF0FF30E3E70398000EAB
:1038A0008DF800000398000C8DF801000398000AC1
:1038B0008DF802000398C0B28DF803006A46042117
:1038C0004FF4767001F0D2FECCE70000B400002087
:1038D00009E3CA0210B586B0044647A00068039009
:1038E00046A00068029046A00068019045A00068CC
:1038F000009004F0030003A9085C8DF8140003A8ED
:10390000C4F3C101405C8DF8150003A8C4F3811114
:10391000405C8DF8160004F0030002A9085C8DF8E5
:10392000100002A8C4F3C101405C8DF8110002A888
:10393000C4F38111405C8DF8120005AA032140F206
:10394000264001F093FE18B14FF0FF3006B010BDD5
:1039500004AA032140F22A4001F088FE10B14FF082
:10396000FF30F3E7019805900098049004F00400FC
:1039700058B19DF8140040F001008DF814009DF836
:10398000100040F001008DF8100004F0200058B144
:103990009DF8150040F001008DF815009DF811000C
:1039A00040F001008DF8110004F4807058B19DF8CA
:1039B000160040F001008DF816009DF8120040F04E
:1039C00001008DF8120005AA03214FF4886001F070
:1039D0004DFE10B14FF0FF30B8E704AA032140F2CA
:1039E000314001F043FE10B14FF0FF30AEE7064822
:1039F00004810020AAE700004CCD6C000CC92C000B
:103A00003656760026466600B4000020F8B5054616
:103A10000E464FF47A7095FBF0F000FB06F4200E92
:103A20008DF80000200C8DF80100200A8DF80200AE
:103A3000E0B28DF803006A4604214FF4AE7001F045
:103A400015FEF8BD38B50446052094FBF0F084B2AD
:103A500020128DF80000E0B28DF801006A460221C4
:103A60004FF4AD7001F002FE38BD38B504460520B4
:103A700094FBF0F084B220128DF80000E0B28DF8D3
:103A800001006A4602214FF4AC7001F0EFFD38BD31
:103A900038B504460020009004F0010020B19DF8E4
:103AA000000040F03000009004F0020020B19DF8CA
:103AB000000040F00C00009004F0040020B19DF8DC
:103AC000000040F0030000906A4601214FF4A4700A
:103AD00001F0CCFD38BD38B50446012C01DA0124D3
:103AE00002E0042C00DD0424601EC0B200906A468F
:103AF000012140F24F1001F0B9FD38BD2DE9FC471E
:103B000006460F4606F0070010B1B7F5C86F03DD93
:103B10004FF0FF30BDE8FC87384602F0B1FD81462A
:103B2000594902F063FC8046684600F04DFE9DF85E
:103B30000000022806D0042816D0082826D0102815
:103B400048D135E04FF08D41404602F0E1FD81461D
:103B500002F05EFD84B24D49404602F0D9FD814637
:103B600002F056FD85B238E04FF08C41404602F03D
:103B7000CFFD814602F04CFD84B24549404602F03B
:103B8000C7FD814602F044FD85B226E04FF08B412F
:103B9000404602F0BDFD814602F03AFD84B23D4947
:103BA000404602F0B5FD814602F032FD85B214E0D8
:103BB0004FF08A41404602F0ABFD814602F028FDFD
:103BC00084B23549404602F0A3FD814602F020FD53
:103BD00085B202E04FF0FF309CE700BF20128DF865
:103BE0000400E0B28DF8050028128DF80600E8B256
:103BF0008DF8070006F00100A0B101AA02214FF4E0
:103C0000EA7001F033FD10B14FF0FF3082E70DF1A3
:103C1000060202214FF4927001F028FD10B14FF01E
:103C2000FF3077E706F00200A0B101AA02214FF4AD
:103C3000EC7001F01BFD10B14FF0FF306AE70DF1A1
:103C4000060202214FF4947001F010FD10B14FF004
:103C5000FF305FE706F00400A0B101AA02214FF493
:103C6000EE7001F003FD10B14FF0FF3052E70DF19F
:103C7000060202214FF4967001F0F8FC10B14FF0EB
:103C8000FF3047E7002045E700004843000040467A
:103C90000000C045000040450000C04438B504465F
:103CA000052094FBF0F085B228128DF80000E8B2F0
:103CB0008DF801006A4602214FF4EF7001F0D6FC46
:103CC00038BD38B50446052094FBF0F085B22812C3
:103CD0008DF80000E8B28DF801006A4602214FF429
:103CE000ED7001F0C3FC38BD00BF054A128802F038
:103CF0004002002AF9D0C2B2014B1B1D1A80704746
:103D0000003801407CB5054628494968087801AB70
:103D100004220D21FDF785FA08B107207CBD9DF82E
:103D20000700C0F301109DF8041001F0E00140EA23
:103D3000E1008DF800009DF80700C0F381009DF8B8
:103D4000051001F0E00140EAE1008DF801009DF866
:103D5000070000F003009DF8061001F0E00140EAC2
:103D6000E1008DF8020000241CE01DF8040018B9E1
:103D7000002045F8240013E00D4845F8240006E033
:103D800055F824000B4902F0C3FC45F824001DF847
:103D90000400401EC0B20DF804000028F0D100BF9E
:103DA000601CC4B2032CE0DB0020B7E70800002051
:103DB0007B14AE3E1D5A843F2DE9F04F87B0054677
:103DC0000C46914601208DF8100000208DF811005E
:103DD000FE4A1268917CFD4A5268107804AB0222B8
:103DE000FDF7C5FA20B14FF0FF3007B0BDE8F08F06
:103DF000C820FFF753F900208DF81000F34A12682D
:103E0000D17BF24A5268107804AB0122FDF7AFFA79
:103E100010B14FF0FF30E8E7EC4A12685179EB4AF5
:103E20005268107804AB0122FDF7A1FA10B14FF0EF
:103E3000FF30DAE7E54A1268917CE44A526810786C
:103E400004AB0122FDF793FA10B14FF0FF30CCE73D
:103E5000DE4A1268D17DDD4A5268107804AB012237
:103E6000FDF785FA10B14FF0FF30BEE7D74A126870
:103E70001179D64A5268107804AB0122FDF777FA1F
:103E800010B14FF0FF30B0E70C208DF81000CF4A92
:103E900012681179CD4A5268107804AB0122FDF7FF
:103EA00066FA10B14FF0FF309FE70F20FFF7F6F8EA
:103EB000C648806A407A8DF81000C44A126891782A
:103EC000C24A5268107804AB0122FDF750FA10B1D3
:103ED0004FF0FF3089E7BD48806A007A8DF8100006
:103EE000BA4A12685178B94A5268107804AB012274
:103EF000FDF73DFA10B14FF0FF3076E7B9F1000F52
:103F000007D0B248806A807A40F0E0008DF8100057
:103F100004E0AE48806A807A8DF81000AB4A1268DF
:103F20009179AA4A5268107804AB0122FDF71FFA72
:103F300010B14FF0FF3058E7B9F1000F07D0A34898
:103F4000806AC07A40F0E0008DF8100003E0A048DD
:103F5000C07A8DF810009D4A1268D1799B4A526848
:103F6000107804AB0122FDF702FA10B14FF0FF30D8
:103F70003BE7B9F1000F02D0C820FFF78FF84020CF
:103F80008DF81000914A12681179904A52681078A1
:103F900004AB0122FDF7EBF910B14FF0FF3024E73D
:103FA00078208DF81000894A12685179874A526842
:103FB000107804AB0122FDF7DAF910B14FF0FF30B1
:103FC00013E783498889FFF769F800208DF810000E
:103FD0007E4A126851797D4A5268107804AB0122FA
:103FE000FDF7C5F910B14FF0FF30FEE6774A1268D1
:103FF000917A764A5268107804AB0222FDF711F9E3
:1040000010B14FF0FF30F0E69DF811009DF8101050
:1040100040EA012B0C209BFBF0F0C6B20020A86008
:1040200068602860A06060602060824665E0674A42
:104030001268D17A654A5268107804AB0C22FDF7F9
:10404000F0F810B14FF0FF30CFE69DF811009DF869
:10405000101040EA012000B2ADF808009DF81300EE
:104060009DF8121040EA012000B2ADF80A009DF858
:1040700015009DF8141040EA012000B2ADF80C00C4
:10408000BDF90810206808442060BDF90A10606876
:1040900008446060BDF90C10A0680844A0609DF859
:1040A00017009DF8161040EA012000B2ADF800009C
:1040B0009DF819009DF8181040EA012000B2ADF8F3
:1040C00002009DF81B009DF81A1040EA012000B282
:1040D000ADF80400BDF90010286808442860BDF957
:1040E0000210686808446860BDF90410A8680844B4
:1040F000A8600AF1010000F0FF0AB24597DB3448DE
:10410000D0F800C02868C117090441EA104107042B
:10411000624600233846FCF75CF832460023CDE9BE
:104120000201FCF756F828602948D0F800C06868FA
:10413000C117090441EA10410704624600233846CA
:10414000FCF747F832460023CDE90201FCF741F8BD
:1041500068601F48D0F800C0A868C117090441EA88
:1041600010410704624600233846FCF732F8324615
:104170000023CDE90201FCF72CF8A8601448D0F820
:1041800004C02168C817000440EA11480F046246C1
:10419000002338464146FCF71CF832460023CDE99F
:1041A0000201FCF716F820600948D0F804C06068E6
:1041B000C117090441EA104107046246002338464A
:1041C000FCF707F83246002304E000000800002056
:1041D000106B0008CDE90201FBF7FBFF606011489E
:1041E000D0F804C0A068C117090441EA10410704CF
:1041F000624600233846FBF7ECFF32460023CDE948
:104200000201FBF7E6FFA060A068002804DDA068BB
:10421000A0F58030A06003E0A06800F58030A060C9
:104220000020E2E5106B00082DE9FC5F06460F4612
:1042300000253D494968087801AB03220D21FCF7B0
:10424000F0FF10B10720BDE8FC9F9DF8040000F0CE
:104250001F008DF804009DF8050000F01F008DF888
:1042600005009DF8060000F01F008DF806000024F0
:1042700056E056F8240057F82410A0EB010BBBF1D0
:10428000000F01DB594601E0CBF10001084602F0C6
:10429000DFF94FF08F41009002F0A8F8814601A8A5
:1042A000005D68B32149086802F0EAF9834659467F
:1042B0001F4802F09BF8804604E01E49404602F089
:1042C00027FA804601A8005D401EC0B201A908552A
:1042D0000028F2D14146484602F088F883464FF064
:1042E0007E5102F013FB82462AF0004B0F48816991
:1042F000584602F0D9FA12D20120A04005430EE040
:104300000A480169484602F0CFF905D307484169D8
:10431000484602F0C9FA02D20120A0400543641CBD
:10432000032CA6DB28468EE708000020106B00084F
:1043300000B04C4554E3853F10B50446204600F0DC
:104340000FF80346E01C00F00BF843EAC00083B20C
:10435000A01D00F005F843EA801083B2184610BD96
:10436000014691F90020002A01DD00201EE091F9AC
:104370000020002A01DA042018E091F90120002A27
:1043800001DD012012E091F90120002A01DA052067
:104390000CE091F90220002A01DD022006E091F9EB
:1043A0000220002A01DA062000E007207047000002
:1043B0004FF4A060FDF776F8FEF74EFEFDF70EF91C
:1043C00000F019F8FCF7B8FEFCF7D0F900F0C0F9DE
:1043D0000BE00648016806480068FDF77DF90220F9
:1043E00001F084F90446FDF7EBFAF2E780000020C3
:1043F0007C000020704710B5FCF7ECFF00214FF661
:10440000FF70FCF719FB00214FF6FF70FCF7B8FABC
:10441000002141F61F40FDF7C9FC10BD70B50446F0
:10442000002624F00104184890F8240008B1002068
:1044300070BD1548807A10B94FF0FF30F8E7124888
:10444000057C807A2040104908740846007CA04210
:1044500002D04FF0FF3600E0002614B90A48007D74
:1044600018B1012001F0A6F902E0002001F0A2F944
:104470003CB100F0E7FC20B1034805744FF0FF3079
:10448000D6E73046D4E70000080000202DE9F04FC1
:1044900099B004460D4616464FF07E574FF000087F
:1044A0004FF000094FF0000A12A813A918AB0EAA8A
:1044B000CDE9001014A916A8FEF7BEFF18B101201F
:1044C00019B0BDE8F08FBDF84C0000F480700028F2
:1044D0007ED00E9802F0BCF883464FF09D4101F06B
:1044E00085FF07460F9802F0B3F883464FF09D41D1
:1044F00001F07CFF8046109802F0AAF883464FF046
:104500009D4101F073FF8146119802F0A1F88346A6
:104510004FF09D4101F06AFF824639464FF08040DE
:1045200002F0F6F84946059002F0F2F8414607908D
:104530004FF0404002F0ECF85146059002F0E8F8E8
:104540000690079901F0E4FE834601F0B5FECDE93F
:104550000801FEF747FA4FF06632544BCDE90A01E5
:1045600001F0D0FBCDE90C0101F092F92060494641
:104570004FF0804002F0CCF84946029002F0C8F8B3
:10458000414604904FF0404002F0C2F8414602908C
:1045900002F0BEF80390049902F0B8F983464FF098
:1045A0007E5101F0B5FE059001F086FECDE90801CF
:1045B00039464FF0804002F0ABF84146039002F0DC
:1045C000A7F8494604904FF0804002F0A1F800E0BF
:1045D00068E05146039002F09BF88346049901F08D
:1045E00097FE059001F068FECDE90601DDE908239C
:1045F000FEF740FC4FF066322C4BCDE90A0101F08A
:1046000081FBCDE90C0101F043F928605146504689
:1046100002F07EF849460490484602F079F8414697
:104620000390404602F074F839460190384602F093
:104630006FF80090019901F06BFE0290039902F06F
:1046400065F98346049902F061F9059001F034FEA2
:10465000CDE908015146384602F05AF8494604901F
:10466000404602F055F80390049901F051FE4FF0D6
:104670008041059002F04CF8834601F01DFECDE923
:104680000601DDE90823FEF7F5FB4FF06632074B24
:10469000CDE90A0101F036FBCDE90C0101F0F8F893
:1046A000306001E002200BE7002009E766A64C40DD
:1046B00070B50024FCF720FC00F060F9002840D120
:1046C000782000F06BFFC4B20CB1012070BD7820DF
:1046D000FFF7A4FEC4B20CB10220F7E7642000F09B
:1046E0000FFFC4B20CB10320F0E7FEF799FEC4B28D
:1046F0000CB10420EAE71548FFF71EFE0546FFF758
:10470000E9F8C4B20CB10520E0E740F27310FEF7FF
:104710002FFDC4B20CB10620D8E76420FFF70AF8D9
:10472000C4B20CB10720D1E701F002F804460CB185
:104730000820CBE7012000F0DFFDC4B21CB1092046
:10474000C4E70A20C2E70020C0E7000034000020D0
:104750001FB501210420FDF7B5FB01210846FDF737
:10476000B1FB48208DF80F004FF48050ADF80C00DD
:1047700003208DF80E0003A91248FCF7D9F90C218B
:104780000020FCF7B5F94FF48050019001208DF81E
:104790000A0000208DF808000C208DF8090001A8FF
:1047A000FCF7A4F828208DF8000001208DF8030004
:1047B00000208DF801008DF802006846FCF73AFEF3
:1047C0001FBD00000008014001461148407A30B189
:1047D000012807D0022808D003280CD108E00220C5
:1047E00008700BE00420087008E00820087005E05D
:1047F0001020087002E04FF0FF30704700BF0448FF
:10480000C07C18B108784006000E08700020F4E75C
:104810000800002001461348407A30B1012808D032
:1048200002280AD0032810D10BE04FF48040088002
:104830000EE041F69C7008800AE04FF4805008803A
:1048400006E04FF40060088002E04FF0FF30704750
:1048500000BF0448C07C10B10888401008800020C8
:10486000F5E700000800002001460248007C0870BF
:10487000002070470800002001460F48007A30B140
:10488000012807D0022809D003280FD10AE0FA2016
:1048900008800EE04FF4FA7008800AE04FF47A7056
:1048A000088006E04FF4FA60088002E000200880EB
:1048B00000BF00BF002070470800002001460E48DE
:1048C000007A30B1012807D0022808D003280CD183
:1048D00008E00A4808600BE00948086008E0094859
:1048E000086005E00848086002E04FF0FF307047BC
:1048F00000BF0020FBE70000080000200000034389
:10490000000083423333034233338341014612486C
:10491000C07A082817D2DFE800F01704070A0D1044
:104920001318BC20088013E06220088010E02A20C1
:1049300008800DE0142008800AE00A20088007E0C3
:104940000520088004E000BF00BF0020088000BFF1
:1049500000BF002070470000080000200146064804
:1049600090F8240010B14FF0FF3070470248C08922
:1049700008800020F9E70000080000201CB5802016
:104980008DF80000654A1268917C644A526810787C
:104990006B460122FCF7EBFC10B14FF0FF301CBD61
:1049A0006420FEF77BFB00208DF800005B4A126854
:1049B000917C5A4A526810786B460122FCF7D7FC6A
:1049C00010B14FF0FF30EAE7544A1268917D534A24
:1049D000526810786B460622FCF723FC10B14FF0AA
:1049E000FF30DCE79DF80500C007400F9DF803107D
:1049F00001F0010140EA41009DF8011001F00101C0
:104A000040EA010494B1012C03D101214348C1744F
:104A100031E0022C03D100214048C1742BE0214633
:104A20003FA0FBF7FBFB4FF0FF30B8E73B4A1268B3
:104A3000D1783A4A526810786B460122FCF7F1FBB4
:104A400010B14FF0FF30AAE79DF8000000F00F040E
:104A50002CB93D48FBF7E2FB4FF0FF309FE7042CF9
:104A600006D13AA0FBF7DAFB01212C48C17402E021
:104A700000212A48C174FF2128488172FF2027495C
:104A80000872FF2125484172C1724FF6FF71C18142
:104A9000FF21017481740121017380F8221000212B
:104AA00080F8231041750175163001604160816006
:104AB000163880F8241080F82510C1844FF4FA606D
:104AC00000F062FC10B14FF0FF3068E7022000F008
:104AD0002BFB10B14FF0FF3061E72A2000F0CEFC35
:104AE00010B14FF0FF305AE7322000F009FD10B14D
:104AF0004FF0FF3053E70020FFF790FC10B14FF06C
:104B0000FF304CE7002000F051FB10B14FF0FF30B8
:104B100045E7002000F042FD002040E708000020AB
:104B2000556E737570706F7274656420736F667400
:104B3000776172652070726F647563742072657638
:104B40002025642E0A0000004880000848616C6639
:104B50002073656E73697469766974792070617207
:104B60007420666F756E642E0A0000002DE9F04314
:104B700085B005460E4690469946294890F825008E
:104B800020B14FF0FF3005B0BDE8F08316B94FF00B
:104B9000FF30F8E7002423E0281B102801DD102057
:104BA00000E0281B87B232193946204600F05EFD2E
:104BB00010B14FF0FF30E6E701AA3946204600F079
:104BC00001F910B14FF0FF30DDE730193A4601A985
:104BD000FBF708FC10B16FF00100D4E7E01984B2D4
:104BE000AC42D9DB4FEA28208DF8000008F0FF0026
:104BF0008DF801000A4A1268917E094A52681078BD
:104C00006B460222FCF7B3FB10B14FF0FF30BAE75E
:104C10000121034880F82510A0F826900020B2E773
:104C20000800002038B50446282C02DD4FF0FF3084
:104C300038BDDCB9002000F0EBFB00208DF800004F
:104C400007208DF801002E4A1268917C2C4A526888
:104C500010786B460222FCF78AFB10B14FF0FF3050
:104C6000E6E70021264801750020E1E7012000F079
:104C7000CFFB20208DF80000012C06D100208DF8FC
:104C80000100052000F0FAFB17E0052C06DC0120EE
:104C90008DF80100052000F0F1FB0EE0142C06DC7D
:104CA00002208DF801000A2000F0E8FB05E0032057
:104CB0008DF80100142000F0E1FB9DF801000721B0
:104CC00001EB8010C0B28DF801000D4A1268917C92
:104CD0000B4A526810786B460222FCF748FB10B171
:104CE0004FF0FF30A4E708210548817200210173CD
:104CF000012101750020FFF791FB002098E70000DB
:104D000008000020F8B504460F4616462C4890F8D7
:104D1000240010B94FF0FF30F8BD2948807A10B94F
:104D20004FF0FF30F8E7264A1268917A244A526819
:104D300010786B460222FCF774FA10B14FF0FF3086
:104D4000EAE79DF801009DF8001040EA0125A54220
:104D500003DA00203070401EDEE7194840684088C2
:104D6000B5EB600F17DD164A1268517C144A526881
:104D700010786B460122FCF754FA10B14FF0FF3067
:104D8000CAE79DF8000000F0100020B100F05AF8CA
:104D90006FF00100C0E7E2B2094B1B68D97A084BFB
:104DA0005B6818783B46FCF73CFA10B14FF0FF30D7
:104DB000B2E795FBF4F0401E30700020ACE7000035
:104DC00008000020F8B504460D46164616B94FF007
:104DD000FF30F8BD1A48807A10B94FF0FF30F8E77D
:104DE00020128DF80000E0B28DF801009DF801005E
:104DF0002844134949684989884202DD4FF0FF3051
:104E0000E7E70F4A1268117E0D4A526810786B4628
:104E10000222FCF7ACFA10B14FF0FF30D9E7EAB24A
:104E2000074B1B68597D064B5B6818783346FCF7C7
:104E3000F8F910B14FF0FF30CBE70020C9E70000D0
:104E40000800002008B57048807A10B94FF0FF3094
:104E500008BD002000906C4A1268D17B6A4A5268F3
:104E600010786B460122FCF782FA10B14FF0FF3048
:104E7000EEE7654A12685179634A526810786B46CA
:104E80000122FCF774FA10B14FF0FF30E0E75E4A00
:104E9000126811795C4A526810786B460122FCF75F
:104EA00066FA10B14FF0FF30D2E7574890F824006F
:104EB000002853D00C200090534A12681179524AAE
:104EC000526810786B460122FCF751FA10B14FF08E
:104ED000FF30BDE73220FEF7E1F8C02000904A48DD
:104EE000807A00F0010020B19DF8000040F0200021
:104EF0000090454A12681179434A526810786B460F
:104F00000122FCF734FA10B14FF0FF30A0E73E4821
:104F1000407C10B10220009001E0002000903A4A4D
:104F20001268D17B384A526810786B460122FCF730
:104F30001EFA10B14FF0FF308AE700200090324A8D
:104F400012685179304A526810786B460122FCF79A
:104F50000EFA002855D04FF0FF3079E7042000907A
:104F6000294A12681179284A526810786B46012242
:104F7000FCF7FDF910B14FF0FF3069E72248807C63
:104F800020B92148807A00F0010010B9402000903B
:104F900001E0602000901C4A126811791A4A526898
:104FA00010786B460122FCF7E2F910B14FF0FF30A8
:104FB0004EE73220FEF772F81348407C10B1012012
:104FC000009001E0002000900F4A1268D17B0E4A49
:104FD000526810786B460122FCF7C9F910B14FF006
:104FE000FF3035E7084A12685179074A526810784D
:104FF000054B10330122FCF7BAF910B14FF0FF3026
:1050000026E7002024E70000080000202DE9F04FEB
:105010008DB083460F4602200C90424890F8240041
:1050200020B1002000F068F9012600E0002603A866
:10503000FFF722FC05A8FFF7C7FB01A8FFF766FCF6
:1050400002A8FFF78BFC374890F80AA004A8FFF7E6
:105050000BFC002407E0002239465846FEF7ACFE60
:1050600000B902E0641C022CF5DB00BF022C01D168
:10507000002528E0002407E0012206A909A8FEF780
:105080009BFE00B902E0641C022CF5DB00BF022C81
:1050900001D1002517E006A93846FDF74FFC00F0C6
:1050A000FF0809A95846FFF7BFF800F0FF090025DF
:1050B000B9F1000F01D145F00105B8F1000F01D1A0
:1050C00045F0020500BFFF2016490872FF21154870
:1050D0004172C1724FF6FF71C181FF21817201746B
:1050E00001210173BDF80C0000F04EF99DF8140089
:1050F00000F01AF8BDF8040000F0C0F9BDF808008F
:1051000000F0FEF9504600F049FA9DF81000FFF754
:1051100085F916B1012000F0EFF828460DB0BDE882
:10512000F08F00000800002038B504461E48807A41
:1051300010B94FF0FF3038BD022C06D0042C07D038
:10514000082C08D0102C0CD108E0002000900BE0B7
:105150000820009008E01020009005E01820009042
:1051600002E04FF0FF30E6E700BF0F48407A9DF8BD
:105170000010B0EBE10F01D10020DCE70A4A126811
:10518000D179094A526810786B460122FCF7EFF892
:1051900010B14FF0FF30CEE79DF80000C11002487B
:1051A00041720020C7E700000800002038B504461F
:1051B0005048807CA04201D1002038BD002C46D050
:1051C0004C4A126811794B4A526810786B4601229A
:1051D000FCF727F810B14FF0FF30EEE79DF8000024
:1051E00020F020000090434A12681179414A526829
:1051F00010786B460122FCF7BAF810B14FF0FF307F
:10520000DBE70320FDF74AFF02200090394890F8C1
:10521000220020B19DF8000040F080000090354849
:1052200090F8230020B19DF8000040F0300000907D
:10523000304A1268117D2F4A526810786B4601225D
:10524000FCF795F8002851D04FF0FF30B5E7294A18
:1052500012681179274A526810786B460122FBF7D1
:10526000E0FF10B14FF0FF30A7E72248807A00F04E
:10527000010028B19DF8000040F02000009004E0FB
:105280009DF8000020F0200000901A4A1268117961
:10529000184A526810786B460122FCF768F810B182
:1052A0004FF0FF3089E70320FDF7F8FE114890F832
:1052B000220010B18020009001E0002000900D48F5
:1052C00090F8230020B19DF8000040F030000090DD
:1052D000084A1268117D074A526810786B4601220D
:1052E000FCF745F810B14FF0FF3066E701488474D1
:1052F000002062E70800002038B50446214890F8F5
:105300002400A04201D1002038BD24B31D4890F8EC
:10531000250010B94FF0FF30F6E7002000F04AFA00
:105320000020FFF743FF1749C88C00F0E9F8002080
:1053300000901449496808786B4601222321FCF744
:1053400016F801210F4880F82410012000F032FAED
:10535000FFF778FD13E0002000F02CFA0948007CEC
:1053600000900849496808786B4601222321FBF721
:10537000FEFF0021034880F82410FFF763FD0020A2
:10538000C2E700000800002038B504461F48807AB4
:1053900010B94FF0FF3038BDFA2C09D0B4F5FA7FC0
:1053A00009D0B4F57A7F09D0B4F5FA6F0CD108E0D2
:1053B000002000900BE00820009008E010200090F2
:1053C00005E01820009002E04FF0FF30E3E700BF57
:1053D0000E48007A9DF80010B0EBE10F01D10020DB
:1053E000D9E70A4A12689179084A526810786B46E0
:1053F0000122FBF7BCFF10B14FF0FF30CBE79DF867
:105400000000C010014908720020C4E70800002015
:1054100038B50446184890F82300A04201D1002076
:1054200038BD14B13020009001E0002000901248F7
:10543000807C20B19DF8000040F0020000900E48F2
:1054400090F8220020B19DF8000040F0800000900C
:10545000094A1268117D084A526810786B46012289
:10546000FBF785FF10B14FF0FF30D9E7024880F815
:1054700023400020D4E700000800002038B504468F
:105480001E48807A10B94FF0FF3038BDBC2C02DBCB
:105490000120009015E0622C02DB0220009010E059
:1054A0002A2C02DB032000900BE0142C02DB0420EA
:1054B000009006E00A2C02DB0520009001E00620A7
:1054C00000900E48C07A9DF80010884201D100205B
:1054D000DBE70A4A12689178084A526810786B46EE
:1054E0000122FBF744FF10B14FF0FF30CDE79DF8EC
:1054F00000100248C1720020C7E700000800002029
:1055000038B504462448807A10B94FF0FF3038BDD2
:10551000214890F8240010B14FF0FF30F7E71E4803
:10552000007D50B134B1282C04DCE0B2FFF77AFBE7
:105530000020ECE70020FFF775FB042C01DA0424BF
:1055400004E0B4F57A7F01DD4FF47A744FF47A7099
:1055500090FBF4F0401EC0B200900F4A12685178E0
:105560000D4A526810786B460122FBF700FF10B11C
:105570004FF0FF30CBE79DF80000401C4FF47A71EC
:1055800091FBF0F081B20448C1810146C9894810FD
:10559000FFF774FF0020BAE70800002038B5044682
:1055A00004F0700010B10120009005E014B100205B
:1055B000009001E0402000902B4A1268917C2A4A1A
:1055C000526810786B460122FBF7D1FE20B1002112
:1055D00025488172481E38BD9DF8000020F040012A
:1055E000214801730020009004F0400020B99DF88C
:1055F000000040F00400009004F0200020B99DF865
:10560000000040F00200009004F0100020B99DF866
:10561000000040F00100009004F0080020B99DF85F
:10562000000040F0380000900F4A1268D17C0E4A0A
:10563000526810786B460122FBF799FE20B10021D9
:1056400009488172481EC6E724B1082C02D0002008
:10565000FFF7DEFE04488472002101753220FDF759
:105660001DFD0020B7E7000008000020F8B5044643
:105670000D46164616B94FF0FF30F8BD1A48807A2D
:1056800010B94FF0FF30F8E720128DF80000E0B2BB
:105690008DF801009DF801002844134949684989A3
:1056A000884202DD4FF0FF30E7E70F4A1268117EB3
:1056B0000D4A526810786B460222FBF758FE10B173
:1056C0004FF0FF30D9E7EAB2074B1B68597D064B14
:1056D0005B6818783346FBF74AFE10B14FF0FF3095
:1056E000CBE70020C9E700000800002070B50546A0
:1056F000022D02D0042D14D10AE04FF08040FCF7B7
:105700005AFE04B200214FF08040FCF76FFF0AE020
:105710000648FCF750FE04B200210448FCF766FF7F
:1057200001E0002400BF00BF204670BD000800401B
:10573000F0B587B001A904A8FFF768FC0546032D62
:1057400036D16846FFF7BAF8049800F081FF0746A3
:10575000009900F0DDFF064600F03EFF049005983A
:1057600000F076FF0746009900F0D2FF064600F0F1
:1057700033FF0590069800F06BFF0746009900F094
:10578000C7FF064600F028FF069004A8FEF70AF8B7
:1057900000240198604301900298604302900398AE
:1057A0006043039001A8FDF72DFF002007B0F0BD76
:1057B0000120FBE738B50446214890F82400C0B129
:1057C00014B10220009001E0002000901C4A1268F1
:1057D000D17B1B4A526810786B460122FBF7C7FD4C
:1057E00010B14FF0FF3038BD9DF8001014484174DF
:1057F00023E01348807A10B94FF0FF30F3E724B16B
:105800000F48407C08B10020EDE714B10120009062
:1058100001E0002000900A4A1268D17B084A5268D1
:1058200010786B460122FBF7A2FD10B14FF0FF305C
:10583000D9E79DF80010024841740020D3E700002A
:10584000080000202DE9F04106460F4600F064FBF9
:10585000041E0D4618BF0120284320F00040C0F16F
:105860007F6000F1E040C00F0ED0301C18BF012057
:10587000384320F00040C0F17F6000F1E040C00FED
:1058800004BF0120FAF762FE20462946BDE8F081F8
:1058900021F00042A2F16052B2F5801F01F00043F6
:1058A00028BFD2F17F6C0BD95FEA001C43EAC20229
:1058B00042EB507018BF704728BF20F001007047BE
:1058C000B2F5801FBCBF184670474FEA410C1CF56B
:1058D000001F02D2084600F0E2BF70B500F0BCFA2B
:1058E00000000089FFF7F6BF4FF00040A0F58000F0
:1058F0007047000010B591EA030F48BF83F00043E2
:1059000000F1F883841A71EB030C05D2121943EBF2
:105910000C03001B61EB0C01DFF824E14FEA11548A
:10592000A4EB135C1EEA430F18BF9EEA445F73D0DA
:1059300023EA0E03DCF1200E21EA045143F4801324
:1059400032D322FA0CFE10EB0E0023FA0CFE41EBD0
:105950000E01CCF1200E03FA0EFE10EB0E0051F1F9
:105960000001B1F5801FCCF1200E32D201EB0451C1
:1059700012FA0EF2BDE8104058BF7047401C38BF05
:105980005FEA420218BF7047002814BF20F00100F0
:1059900041F100014FEA410313F5001F38BF704782
:1059A000A1F1C04100F0A6BA012A43EB0302ACF119
:1059B000200CDCF11F0E32BF4FF0000E23FA0CF367
:1059C00010EB030041EB0451B4EB115FD0D0A1EB1D
:1059D000045101F5801149085FEA300001EB0451E0
:1059E0000ED350F1000038BF12FA0EFE08D1BDE808
:1059F0001040C9E7401C38BF5FEA4202CAD1C3E782
:105A0000BDE810404FEA410313F5001F38BF70474F
:105A1000A1F1C04100F06EBA9EEA445F08D011EADD
:105A20005E0FBDE8104004BF01F000410020704748
:105A3000BDE8104070B500F00FFA00BF64FBBE3E39
:105A40000000E0FF02494FF0000000F0D4BF00BFAB
:105A50000000F87F2DE9C04130B4DFF8A0C23CEA75
:105A6000111418BF3CEA131400F0EC8081EA03051E
:105A70001CEA111444EAD57418BF1CEA131500F08F
:105A8000C780A4EB05044FF0004545EAC12145EA73
:105A9000C32341EA505143EA525304F17F749942BF
:105AA00004F500344FEAC0204FEAC22208BF9042FA
:105AB00000F09C804FEA13650FF24016765D4FEAC6
:105AC000134506FB05F7C7F1807706FB07F74FEA9A
:105AD000D737A7FB03687642C8F58038A7FB06CE08
